:020000040800F2
:1000000010040020D90B0008B50B0008B70B00083E
:10001000B90B0008BB0B0008BD0B00080000000076
:10002000000000000000000000000000BF0B0008FE
:10003000C10B000800000000C30B0008C50B00083E
:10004000050C0008090C00080D0C0008110C000834
:10005000150C0008190C00081D0C0008210C0008E4
:10006000250C0008290C00082D0C0008310C000894
:10007000350C0008390C00083D0C0008410C000844
:10008000450C0008490C00084D0C0008510C0008F4
:10009000550C0008590C00085D0C0008610C0008A4
:1000A000650C0008690C00086D0C0008710C000854
:1000B000750C0008790C00087D0C0008810C000804
:1000C000850C0008890C00088D0C0008910C0008B4
:1000D000950C0008990C00089D0C0008A10C000864
:1000E000A50C0008A90C0008AD0C0008B10C000814
:1000F000B50C0008B90C0008BD0C0008C10C0008C4
:10010000C50C0008C90C0008CD0C0008D10C000873
:10011000D50C0008D90C0008DD0C0008E10C000823
:10012000E50C0008E90C0008ED0C0008F10C0008D3
:10013000F50C0008F90C0008FD0C0008010D000882
:10014000050D0008090D00080D0D0008110D00082F
:10015000150D0008190D00081D0D0008210D0008DF
:10016000250D0008290D00082D0D0008310D00088F
:10017000350D0008390D00083D0D00080000000095
:10018000410D0008450D00082DE9F843040016D084
:100190002078DFF80C63C10713D5B06800F00C00BD
:1001A000042807D0B06800F00C0008283ED1706821
:1001B00041023BD53168880303D56068002800F010
:1001C00001812178B74F880719D5B06810F00C0F5E
:1001D00007D0B06800F00C00082858D170684102C0
:1001E00055D43168880703D5E068012840F0EA80DB
:1001F0003168206921F0F80141EAC00131602178BD
:10020000080768D56069A84900285ED001220A6005
:1002100000F04EF90546706F810700F1D58000F0BF
:1002200047F9401B0228F6D9032036E16068B0F593
:10023000803F06D0B0F5A02F316807D141F480216E
:100240003160306840F48030306006E021F4803165
:100250003160326822F480223260606858B100F068
:1002600027F9054631688803ABD400F021F9401B1B
:100270006528F7D3D8E700F01BF9054630688103FD
:100280009FD500F015F9401B6528F7D3CCE7E0684F
:1002900070B10121396000F00BF905463068810723
:1002A00000F1BE8000F004F9401B0228F6D9BBE73C
:1002B000386000F0FDF80546306881079FD500F0F2
:1002C000F7F8401B0228F7D9AEE7086000F0F0F815
:1002D0000546706F810777D500F0EAF8401B0228C9
:1002E000F7D9A1E70528306F06D140F00400306748
:1002F000306F40F0010005E0400840003067306F8B
:1003000020F00400306741F28938A06868B100F03D
:10031000CFF88146306F810700F18F8000F0C8F878
:10032000A0EB09004045F5D37EE700F0C1F8814617
:10033000306F810740F1818000F0BAF8A0EB09002E
:100340004045F5D370E700F0B3F8401B022840F2B7
:10035000878069E700F0ACF8001B022840F2988023
:1003600062E70020386600F0A3F804463068810197
:1003700040F1928000F09CF8001B0228F6D953E768
:1003800001281FD07068E26900F48001914202BF29
:1003900000F03F01226A914201BF47F6C07101405F
:1003A000626AB1EB821F0DD1A26A520800F440319B
:1003B000521EB1EB024F02BF00F07060E16AB0EB79
:1003C000016F69D0012068E0207841073AD5306C90
:1003D0000025C1000AD400950125306C40F0805002
:1003E0003064306C00F0805000900098DFF8BC80E2
:1003F000D8F80010C8051BD4D8F8000040F480706D
:10040000C8F8000000F054F88146D8F80010C8057C
:100410000ED400F04DF8A0EB09000228F5D903E74F
:100420003068216920F0F80040EAC1003060E6E65B
:10043000A06801287FF456AF5AE71DB1306C20F058
:1004400080503064A06938B3B16801F00C0108290C
:1004500096D0022885D10020386600F029F805469C
:10046000306881013FF56FAFE169206AA26A0143FC
:10047000606A520841EA8011521EE06A41EA024174
:1004800041EA006171600121396600F011F804460B
:10049000306881017FF55EAF0020BDE8F28300BFC8
:1004A0000038024000004742800E47420070004082
:1004B00001484068704700BF00000020B3BBD9B1BD
:1004C000B2F5803F7DD2022A1ED98C46B1FBF2F1F3
:1004D00002FB11C31B0443EA1043B3FBF2FC02FB13
:1004E0001C3380B240EA0343B3FBF2F002FB10324C
:1004F00040EA0C4000237047022A05D98446B0FB2D
:10050000F2F002FB10C270474AB105D100F00102BF
:1005100049085FEA3000704700220023704700F06E
:10052000E5B80B000200002100207047904271EBFB
:10053000030CF6D3B3F5803F2FD2F0B5B3FA83F7AF
:10054000B1FA81F4A7F10F0E3D1B5340CEF1200606
:1005500002FA0EF2F3415340B5F10F0746D80F3CB3
:100560002C444140C4F12006A040F1414140B1FB80
:10057000F3F603FB1611A2FB0645001BA94102D2AC
:10058000761E8018594180EA010221FA0EF362FAC0
:100590000EF200215A403046F0BD30B4B1FBF3FCFE
:1005A00003FB1C11A2FB0C45001BA94103D2ACF1BB
:1005B000010C8018594130BC02460B4660460021B0
:1005C0007047B2F1807F65D3F0B5B2FA82F7B1FA25
:1005D00081F4C7F10F063D1B22FA06F307F1110E55
:1005E000F24120355A40B5F10F07B8D94140C4F166
:1005F0002006A040F1414140B1FBF3FC03FB1C117C
:10060000A2FB0C45001BA94103D2BCF1010C8018D0
:1006100059410F2F12D30F3FC90341EA5041B1FB9B
:10062000F3F603FB1611A2FB0645D4EBC030A9413B
:1006300002D2761E8018594146EACC3C07B34140AD
:10064000C7F12006B840F1414140B1FBF3F603FB8E
:100650001611A2FB0645001BA94102D2761E801886
:10066000594180EA010221FA0EF3C7F1200462FA2F
:100670000EF20CFA07F05A402CFA04F13043F0BDA8
:1006800080EA010221FA0EF3002162FA0EF26046BE
:100690005A40F0BD8C46B1FBF2F102FB11C31B02C4
:1006A00043EA1063B3FBF2FC02FB1C331B024CEA6F
:1006B000002043EA1063B3FBF2FC02FB1C331B0275
:1006C0004CEA002043EA1063B3FBF2FC02FB1C334C
:1006D0001B024CEA002043EA1063B3FBF2FC02FB6E
:1006E0001C324CEA002000237047000070470000D5
:1006F0002DE9F84304000F4678D0404E306800F0F2
:100700000700B84202D200F073F86FD120683C4D68
:10071000810712D5400703D5A86840F4E050A860CF
:100720002178080703D5A86840F46040A860A9684C
:10073000A06821F0F0010143A9602078C1074DD5E0
:100740006068012802D129688A0305E0022818BFE1
:10075000032803D129688A0103D447E02A68910756
:1007600044D5A968890840EA8100A86041F2893926
:10077000FFF79EFE8046A868616800F00C00B0EBB1
:10078000810F2BD0FFF794FEA0EB08004845F2D371
:10079000032021E02078410705D5A968E06821F40D
:1007A000E0510143A9602078010706D5A8682169B6
:1007B00020F4604040EAC100A86000F029F8AA686F
:1007C0001049C2F30312895C0F4AC84010600F48F9
:1007D000006800F049F80020BDE8F283306800F0BE
:1007E00007008742D6D200F003F8D3D00120F3E708
:1007F0003770316801F00701B9427047003C024090
:1008000000380240D00A00080C0000200800002038
:1008100018B5124C606800F00C00042802D00828BB
:1008200002D019E00E4812BD002322682068410260
:100830002068C0F388104CBF09490A4902F03F0202
:10084000A1FB0001FFF73AFE2168C1F30141491CF9
:100850004900B0FBF1F012BD024812BD043802405D
:1008600000127A000024F40038B50D4D0D4A2978A5
:1008700004464FF47A70B0FBF1F11068B0FBF1F070
:1008800000F04BF850B9102C08D2002221464FF04E
:10089000FF3000F025F8AC60002032BD012032BDF1
:1008A000000000200C0000200901002881B002D4C3
:1008B000244A115405E0244A00F00F00104400F8C7
:1008C000041C01B07047214A13684FF6FF01000273
:1008D0000B4000F4E06018431D4908431060704766
:1008E00038B51A4B1C68C4F30223C3F10704052C66
:1008F00028BF04241D1D072D34BF0023DB1E012546
:1009000005FA04F4641E2140994005FA03F35B1EC6
:100910001A401143BDE83440C6E710B5401EB0F19F
:10092000807F01D3012010BD0A4C60600F214FF081
:10093000FF30FFF7B9FF0022A260072020600020EF
:1009400010BD000000E400E018ED00E00CED00E058
:100950000000FA0510E000E010B592B000F072F867
:10096000002000900021324C206940F0805020612E
:10097000206900F08050009000982E4800910121DD
:10098000026842F4804202604FF48032006800F452
:10099000804000900098069102200C904FF4800156
:1009A0000D9108200E904FF4A8710F910220109025
:1009B00007210792119106A8FFF7E6FB00B1FEE7B9
:1009C0000F20019002210020029103904FF4A051CA
:1009D0004FF4805004910590052101A8FFF788FE8F
:1009E00000B1FEE700F042F841F20101884204D173
:1009F0001148016841F480710160206840F00800EE
:100A000020600E48016821F040710160026842F0E8
:100A100080720260416981F480514161002200923C
:100A20000099074A9142BCBF009A521CF7DBF1E7DC
:100A30003038024000700040003C0240000C024090
:100A400040420F0080B50B48016841F4007101601D
:100A5000026842F4806202600320FFF734FF0F2037
:100A6000FFF702FF00F00AF8002002BD024800680C
:100A7000000C7047003C0240002004E0704700007A
:100A80000E48016841F47001016000220C490868B9
:100A900040F0010008608A600A480A6802400A6063
:100AA000002209484860086820F480200860CA6075
:100AB0004FF00060054908607047000088ED00E0D5
:100AC00000380240FFFFF6FE1030002408ED00E081
:100AD00000000000000000000102030406070809EE
:100AE00010B450F8041B79B102684368024408301E
:100AF000DC0744BFA9F10104E31852F8044B43F8A2
:100B0000044B091FF9D1ECE710BC704710B5074939
:100B100079441831064C7C44163404E00A68081DF8
:100B2000114488470146A142F8D110BD2C000000B5
:100B30003C0000004EF68851CEF20001086840F4F7
:100B400070000860BFF34F8FBFF36F8F4FF00070DE
:100B5000E1EE100A7047000089FFFFFF100000005F
:100B600088000000000000200000000000F00DF8E8
:100B7000002801D0FFF7CAFFAFF300800020AFF3D9
:100B80000080FFF7E9FE00F002F80120704700F056
:100B900001B800000746384600F002F8FBE7000005
:100BA00080B5AFF30080024A11001820ABBEFBE70E
:100BB000260002007047FEE7FEE7FEE7FEE770470B
:100BC0007047704700F000B8024841680278891801
:100BD00041607047000000200148804701480047FD
:100BE000810A0008F90B0008010000000000000065
:100BF000100000000024F400AFF30080FFF79AFF1C
:100C0000FFF7B4FFFFF7FEBFFFF7FEBFFFF7FEBF22
:100C1000FFF7FEBFFFF7FEBFFFF7FEBFFFF7FEBF08
:100C2000FFF7FEBFFFF7FEBFFFF7FEBFFFF7FEBFF8
:100C3000FFF7FEBFFFF7FEBFFFF7FEBFFFF7FEBFE8
:100C4000FFF7FEBFFFF7FEBFFFF7FEBFFFF7FEBFD8
:100C5000FFF7FEBFFFF7FEBFFFF7FEBFFFF7FEBFC8
:100C6000FFF7FEBFFFF7FEBFFFF7FEBFFFF7FEBFB8
:100C7000FFF7FEBFFFF7FEBFFFF7FEBFFFF7FEBFA8
:100C8000FFF7FEBFFFF7FEBFFFF7FEBFFFF7FEBF98
:100C9000FFF7FEBFFFF7FEBFFFF7FEBFFFF7FEBF88
:100CA000FFF7FEBFFFF7FEBFFFF7FEBFFFF7FEBF78
:100CB000FFF7FEBFFFF7FEBFFFF7FEBFFFF7FEBF68
:100CC000FFF7FEBFFFF7FEBFFFF7FEBFFFF7FEBF58
:100CD000FFF7FEBFFFF7FEBFFFF7FEBFFFF7FEBF48
:100CE000FFF7FEBFFFF7FEBFFFF7FEBFFFF7FEBF38
:100CF000FFF7FEBFFFF7FEBFFFF7FEBFFFF7FEBF28
:100D0000FFF7FEBFFFF7FEBFFFF7FEBFFFF7FEBF17
:100D1000FFF7FEBFFFF7FEBFFFF7FEBFFFF7FEBF07
:100D2000FFF7FEBFFFF7FEBFFFF7FEBFFFF7FEBFF7
:100D3000FFF7FEBFFFF7FEBFFFF7FEBFFFF7FEBFE7
:080D4000FFF7FEBFFFF7FEBF45
:0400000508000BF9EB
:00000001FF
